{
  "_format": "hh-sol-artifact-1",
  "contractName": "Adulam",
  "sourceName": "src/contracts/Adulam.sol",
  "abi": [
    {
      "inputs": [
        {
          "internalType": "string",
          "name": "_name",
          "type": "string"
        },
        {
          "internalType": "string",
          "name": "_symbol",
          "type": "string"
        },
        {
          "internalType": "string",
          "name": "_initBaseURI",
          "type": "string"
        }
      ],
      "stateMutability": "nonpayable",
      "type": "constructor"
    },
    {
      "anonymous": false,
      "inputs": [
        {
          "indexed": true,
          "internalType": "address",
          "name": "owner",
          "type": "address"
        },
        {
          "indexed": true,
          "internalType": "address",
          "name": "approved",
          "type": "address"
        },
        {
          "indexed": true,
          "internalType": "uint256",
          "name": "tokenId",
          "type": "uint256"
        }
      ],
      "name": "Approval",
      "type": "event"
    },
    {
      "anonymous": false,
      "inputs": [
        {
          "indexed": true,
          "internalType": "address",
          "name": "owner",
          "type": "address"
        },
        {
          "indexed": true,
          "internalType": "address",
          "name": "operator",
          "type": "address"
        },
        {
          "indexed": false,
          "internalType": "bool",
          "name": "approved",
          "type": "bool"
        }
      ],
      "name": "ApprovalForAll",
      "type": "event"
    },
    {
      "anonymous": false,
      "inputs": [
        {
          "indexed": true,
          "internalType": "address",
          "name": "previousOwner",
          "type": "address"
        },
        {
          "indexed": true,
          "internalType": "address",
          "name": "newOwner",
          "type": "address"
        }
      ],
      "name": "OwnershipTransferred",
      "type": "event"
    },
    {
      "anonymous": false,
      "inputs": [
        {
          "indexed": false,
          "internalType": "uint256",
          "name": "id",
          "type": "uint256"
        },
        {
          "indexed": true,
          "internalType": "address",
          "name": "buyer",
          "type": "address"
        },
        {
          "indexed": false,
          "internalType": "uint256",
          "name": "cost",
          "type": "uint256"
        },
        {
          "indexed": true,
          "internalType": "string",
          "name": "tokenURI",
          "type": "string"
        },
        {
          "indexed": false,
          "internalType": "uint256",
          "name": "timestamp",
          "type": "uint256"
        }
      ],
      "name": "Sale",
      "type": "event"
    },
    {
      "anonymous": false,
      "inputs": [
        {
          "indexed": true,
          "internalType": "address",
          "name": "from",
          "type": "address"
        },
        {
          "indexed": true,
          "internalType": "address",
          "name": "to",
          "type": "address"
        },
        {
          "indexed": true,
          "internalType": "uint256",
          "name": "tokenId",
          "type": "uint256"
        }
      ],
      "name": "Transfer",
      "type": "event"
    },
    {
      "inputs": [
        {
          "internalType": "address",
          "name": "to",
          "type": "address"
        },
        {
          "internalType": "uint256",
          "name": "tokenId",
          "type": "uint256"
        }
      ],
      "name": "approve",
      "outputs": [],
      "stateMutability": "nonpayable",
      "type": "function"
    },
    {
      "inputs": [
        {
          "internalType": "address",
          "name": "owner",
          "type": "address"
        }
      ],
      "name": "balanceOf",
      "outputs": [
        {
          "internalType": "uint256",
          "name": "",
          "type": "uint256"
        }
      ],
      "stateMutability": "view",
      "type": "function"
    },
    {
      "inputs": [],
      "name": "baseExtension",
      "outputs": [
        {
          "internalType": "string",
          "name": "",
          "type": "string"
        }
      ],
      "stateMutability": "view",
      "type": "function"
    },
    {
      "inputs": [],
      "name": "baseImage",
      "outputs": [
        {
          "internalType": "string",
          "name": "",
          "type": "string"
        }
      ],
      "stateMutability": "view",
      "type": "function"
    },
    {
      "inputs": [],
      "name": "cost",
      "outputs": [
        {
          "internalType": "uint256",
          "name": "",
          "type": "uint256"
        }
      ],
      "stateMutability": "view",
      "type": "function"
    },
    {
      "inputs": [],
      "name": "getAllNFTs",
      "outputs": [
        {
          "components": [
            {
              "internalType": "uint256",
              "name": "id",
              "type": "uint256"
            },
            {
              "internalType": "address",
              "name": "buyer",
              "type": "address"
            },
            {
              "internalType": "uint256",
              "name": "cost",
              "type": "uint256"
            },
            {
              "internalType": "string",
              "name": "imageURL",
              "type": "string"
            },
            {
              "internalType": "uint256",
              "name": "timestamp",
              "type": "uint256"
            }
          ],
          "internalType": "struct Adulam.SaleStruct[]",
          "name": "",
          "type": "tuple[]"
        }
      ],
      "stateMutability": "view",
      "type": "function"
    },
    {
      "inputs": [
        {
          "internalType": "uint256",
          "name": "tokenId",
          "type": "uint256"
        }
      ],
      "name": "getAnNFTs",
      "outputs": [
        {
          "components": [
            {
              "internalType": "uint256",
              "name": "id",
              "type": "uint256"
            },
            {
              "internalType": "address",
              "name": "buyer",
              "type": "address"
            },
            {
              "internalType": "uint256",
              "name": "cost",
              "type": "uint256"
            },
            {
              "internalType": "string",
              "name": "imageURL",
              "type": "string"
            },
            {
              "internalType": "uint256",
              "name": "timestamp",
              "type": "uint256"
            }
          ],
          "internalType": "struct Adulam.SaleStruct",
          "name": "",
          "type": "tuple"
        }
      ],
      "stateMutability": "view",
      "type": "function"
    },
    {
      "inputs": [
        {
          "internalType": "uint256",
          "name": "tokenId",
          "type": "uint256"
        }
      ],
      "name": "getApproved",
      "outputs": [
        {
          "internalType": "address",
          "name": "",
          "type": "address"
        }
      ],
      "stateMutability": "view",
      "type": "function"
    },
    {
      "inputs": [
        {
          "internalType": "address",
          "name": "owner",
          "type": "address"
        },
        {
          "internalType": "address",
          "name": "operator",
          "type": "address"
        }
      ],
      "name": "isApprovedForAll",
      "outputs": [
        {
          "internalType": "bool",
          "name": "",
          "type": "bool"
        }
      ],
      "stateMutability": "view",
      "type": "function"
    },
    {
      "inputs": [],
      "name": "maxSupply",
      "outputs": [
        {
          "internalType": "uint256",
          "name": "",
          "type": "uint256"
        }
      ],
      "stateMutability": "view",
      "type": "function"
    },
    {
      "inputs": [],
      "name": "name",
      "outputs": [
        {
          "internalType": "string",
          "name": "",
          "type": "string"
        }
      ],
      "stateMutability": "view",
      "type": "function"
    },
    {
      "inputs": [],
      "name": "owner",
      "outputs": [
        {
          "internalType": "address",
          "name": "",
          "type": "address"
        }
      ],
      "stateMutability": "view",
      "type": "function"
    },
    {
      "inputs": [
        {
          "internalType": "uint256",
          "name": "tokenId",
          "type": "uint256"
        }
      ],
      "name": "ownerOf",
      "outputs": [
        {
          "internalType": "address",
          "name": "",
          "type": "address"
        }
      ],
      "stateMutability": "view",
      "type": "function"
    },
    {
      "inputs": [],
      "name": "paused",
      "outputs": [
        {
          "internalType": "bool",
          "name": "",
          "type": "bool"
        }
      ],
      "stateMutability": "view",
      "type": "function"
    },
    {
      "inputs": [
        {
          "internalType": "address",
          "name": "to",
          "type": "address"
        },
        {
          "internalType": "uint256",
          "name": "amount",
          "type": "uint256"
        }
      ],
      "name": "payTo",
      "outputs": [],
      "stateMutability": "nonpayable",
      "type": "function"
    },
    {
      "inputs": [],
      "name": "payToMint",
      "outputs": [],
      "stateMutability": "payable",
      "type": "function"
    },
    {
      "inputs": [],
      "name": "renounceOwnership",
      "outputs": [],
      "stateMutability": "nonpayable",
      "type": "function"
    },
    {
      "inputs": [
        {
          "internalType": "address",
          "name": "from",
          "type": "address"
        },
        {
          "internalType": "address",
          "name": "to",
          "type": "address"
        },
        {
          "internalType": "uint256",
          "name": "tokenId",
          "type": "uint256"
        }
      ],
      "name": "safeTransferFrom",
      "outputs": [],
      "stateMutability": "nonpayable",
      "type": "function"
    },
    {
      "inputs": [
        {
          "internalType": "address",
          "name": "from",
          "type": "address"
        },
        {
          "internalType": "address",
          "name": "to",
          "type": "address"
        },
        {
          "internalType": "uint256",
          "name": "tokenId",
          "type": "uint256"
        },
        {
          "internalType": "bytes",
          "name": "data",
          "type": "bytes"
        }
      ],
      "name": "safeTransferFrom",
      "outputs": [],
      "stateMutability": "nonpayable",
      "type": "function"
    },
    {
      "inputs": [
        {
          "internalType": "address",
          "name": "operator",
          "type": "address"
        },
        {
          "internalType": "bool",
          "name": "approved",
          "type": "bool"
        }
      ],
      "name": "setApprovalForAll",
      "outputs": [],
      "stateMutability": "nonpayable",
      "type": "function"
    },
    {
      "inputs": [
        {
          "internalType": "string",
          "name": "_newBaseURI",
          "type": "string"
        }
      ],
      "name": "setBaseURI",
      "outputs": [],
      "stateMutability": "nonpayable",
      "type": "function"
    },
    {
      "inputs": [
        {
          "internalType": "bool",
          "name": "_state",
          "type": "bool"
        }
      ],
      "name": "setPause",
      "outputs": [],
      "stateMutability": "nonpayable",
      "type": "function"
    },
    {
      "inputs": [
        {
          "internalType": "bytes4",
          "name": "interfaceId",
          "type": "bytes4"
        }
      ],
      "name": "supportsInterface",
      "outputs": [
        {
          "internalType": "bool",
          "name": "",
          "type": "bool"
        }
      ],
      "stateMutability": "view",
      "type": "function"
    },
    {
      "inputs": [],
      "name": "symbol",
      "outputs": [
        {
          "internalType": "string",
          "name": "",
          "type": "string"
        }
      ],
      "stateMutability": "view",
      "type": "function"
    },
    {
      "inputs": [
        {
          "internalType": "uint256",
          "name": "index",
          "type": "uint256"
        }
      ],
      "name": "tokenByIndex",
      "outputs": [
        {
          "internalType": "uint256",
          "name": "",
          "type": "uint256"
        }
      ],
      "stateMutability": "view",
      "type": "function"
    },
    {
      "inputs": [
        {
          "internalType": "address",
          "name": "owner",
          "type": "address"
        },
        {
          "internalType": "uint256",
          "name": "index",
          "type": "uint256"
        }
      ],
      "name": "tokenOfOwnerByIndex",
      "outputs": [
        {
          "internalType": "uint256",
          "name": "",
          "type": "uint256"
        }
      ],
      "stateMutability": "view",
      "type": "function"
    },
    {
      "inputs": [
        {
          "internalType": "uint256",
          "name": "tokenId",
          "type": "uint256"
        }
      ],
      "name": "tokenURI",
      "outputs": [
        {
          "internalType": "string",
          "name": "",
          "type": "string"
        }
      ],
      "stateMutability": "view",
      "type": "function"
    },
    {
      "inputs": [],
      "name": "totalSupply",
      "outputs": [
        {
          "internalType": "uint256",
          "name": "",
          "type": "uint256"
        }
      ],
      "stateMutability": "view",
      "type": "function"
    },
    {
      "inputs": [
        {
          "internalType": "address",
          "name": "from",
          "type": "address"
        },
        {
          "internalType": "address",
          "name": "to",
          "type": "address"
        },
        {
          "internalType": "uint256",
          "name": "tokenId",
          "type": "uint256"
        }
      ],
      "name": "transferFrom",
      "outputs": [],
      "stateMutability": "nonpayable",
      "type": "function"
    },
    {
      "inputs": [
        {
          "internalType": "address",
          "name": "newOwner",
          "type": "address"
        }
      ],
      "name": "transferOwnership",
      "outputs": [],
      "stateMutability": "nonpayable",
      "type": "function"
    }
  ],
  "bytecode": "0x60c0604052600560808190526402e776562760dc1b60a09081526200002891600c9190620001dc565b5060408051808201909152600580825264173539b7b760d91b60209092019182526200005791600d91620001dc565b5066038d7ea4c68000600e556063600f556010805460ff191690553480156200007f57600080fd5b5060405162002a9338038062002a93833981016040819052620000a2916200034f565b825183908390620000bb906000906020850190620001dc565b508051620000d1906001906020840190620001dc565b505050620000ee620000e86200010260201b60201c565b62000106565b620000f98162000158565b5050506200041d565b3390565b600a80546001600160a01b038381166001600160a01b0319831681179093556040519116919082907f8be0079c531659141344cd1fd0a4f28419497f9722a3daafe3b4186f6b6457e090600090a35050565b620001626200017b565b80516200017790600b906020840190620001dc565b5050565b600a546001600160a01b03163314620001da5760405162461bcd60e51b815260206004820181905260248201527f4f776e61626c653a2063616c6c6572206973206e6f7420746865206f776e6572604482015260640160405180910390fd5b565b828054620001ea90620003e0565b90600052602060002090601f0160209004810192826200020e576000855562000259565b82601f106200022957805160ff191683800117855562000259565b8280016001018555821562000259579182015b82811115620002595782518255916020019190600101906200023c565b50620002679291506200026b565b5090565b5b808211156200026757600081556001016200026c565b634e487b7160e01b600052604160045260246000fd5b600082601f830112620002aa57600080fd5b81516001600160401b0380821115620002c757620002c762000282565b604051601f8301601f19908116603f01168101908282118183101715620002f257620002f262000282565b816040528381526020925086838588010111156200030f57600080fd5b600091505b8382101562000333578582018301518183018401529082019062000314565b83821115620003455760008385830101525b9695505050505050565b6000806000606084860312156200036557600080fd5b83516001600160401b03808211156200037d57600080fd5b6200038b8783880162000298565b94506020860151915080821115620003a257600080fd5b620003b08783880162000298565b93506040860151915080821115620003c757600080fd5b50620003d68682870162000298565b9150509250925092565b600181811c90821680620003f557607f821691505b602082108114156200041757634e487b7160e01b600052602260045260246000fd5b50919050565b612666806200042d6000396000f3fe6080604052600436106101cd5760003560e01c806368ef9d3c116100f7578063b88d4fde11610095578063d5abeb0111610064578063d5abeb01146104fd578063e0391b0914610513578063e985e9c514610535578063f2fde38b1461057e57600080fd5b8063b88d4fde14610488578063bedb86fb146104a8578063c6682862146104c8578063c87b56dd146104dd57600080fd5b80637bf08621116100d15780637bf08621146104155780638da5cb5b1461043557806395d89b4114610453578063a22cb4651461046857600080fd5b806368ef9d3c146103b357806370a08231146103e0578063715018a61461040057600080fd5b806323b872dd1161016f578063509c71801161013e578063509c71801461035157806355f804b3146103595780635c975abb146103795780636352211e1461039357600080fd5b806323b872dd146102d15780632f745c59146102f157806342842e0e146103115780634f6ccce71461033157600080fd5b8063081812fc116101ab578063081812fc1461023e578063095ea7b31461027657806313faede61461029857806318160ddd146102bc57600080fd5b806301ffc9a7146101d257806303b0f38d1461020757806306fdde0314610229575b600080fd5b3480156101de57600080fd5b506101f26101ed366004611f8b565b61059e565b60405190151581526020015b60405180910390f35b34801561021357600080fd5b5061021c6105c9565b6040516101fe9190612000565b34801561023557600080fd5b5061021c610657565b34801561024a57600080fd5b5061025e610259366004612013565b6106e9565b6040516001600160a01b0390911681526020016101fe565b34801561028257600080fd5b50610296610291366004612048565b610710565b005b3480156102a457600080fd5b506102ae600e5481565b6040519081526020016101fe565b3480156102c857600080fd5b506008546102ae565b3480156102dd57600080fd5b506102966102ec366004612072565b61082b565b3480156102fd57600080fd5b506102ae61030c366004612048565b61085c565b34801561031d57600080fd5b5061029661032c366004612072565b6108f2565b34801561033d57600080fd5b506102ae61034c366004612013565b61090d565b6102966109a0565b34801561036557600080fd5b5061029661037436600461213a565b610c48565b34801561038557600080fd5b506010546101f29060ff1681565b34801561039f57600080fd5b5061025e6103ae366004612013565b610c67565b3480156103bf57600080fd5b506103d36103ce366004612013565b610cc7565b6040516101fe91906121d2565b3480156103ec57600080fd5b506102ae6103fb3660046121e5565b610e1e565b34801561040c57600080fd5b50610296610ea4565b34801561042157600080fd5b50610296610430366004612048565b610eb8565b34801561044157600080fd5b50600a546001600160a01b031661025e565b34801561045f57600080fd5b5061021c610f20565b34801561047457600080fd5b50610296610483366004612210565b610f2f565b34801561049457600080fd5b506102966104a3366004612243565b610f3a565b3480156104b457600080fd5b506102966104c33660046122bf565b610f72565b3480156104d457600080fd5b5061021c610f8d565b3480156104e957600080fd5b5061021c6104f8366004612013565b610f9a565b34801561050957600080fd5b506102ae600f5481565b34801561051f57600080fd5b50610528611078565b6040516101fe91906122da565b34801561054157600080fd5b506101f261055036600461233c565b6001600160a01b03918216600090815260056020908152604080832093909416825291909152205460ff1690565b34801561058a57600080fd5b506102966105993660046121e5565b61119e565b60006001600160e01b0319821663780e9d6360e01b14806105c357506105c382611217565b92915050565b600c80546105d690612366565b80601f016020809104026020016040519081016040528092919081815260200182805461060290612366565b801561064f5780601f106106245761010080835404028352916020019161064f565b820191906000526020600020905b81548152906001019060200180831161063257829003601f168201915b505050505081565b60606000805461066690612366565b80601f016020809104026020016040519081016040528092919081815260200182805461069290612366565b80156106df5780601f106106b4576101008083540402835291602001916106df565b820191906000526020600020905b8154815290600101906020018083116106c257829003601f168201915b5050505050905090565b60006106f482611267565b506000908152600460205260409020546001600160a01b031690565b600061071b82610c67565b9050806001600160a01b0316836001600160a01b0316141561078e5760405162461bcd60e51b815260206004820152602160248201527f4552433732313a20617070726f76616c20746f2063757272656e74206f776e656044820152603960f91b60648201526084015b60405180910390fd5b336001600160a01b03821614806107aa57506107aa8133610550565b61081c5760405162461bcd60e51b815260206004820152603d60248201527f4552433732313a20617070726f76652063616c6c6572206973206e6f7420746f60448201527f6b656e206f776e6572206f7220617070726f76656420666f7220616c6c0000006064820152608401610785565b61082683836112c6565b505050565b6108353382611334565b6108515760405162461bcd60e51b8152600401610785906123a1565b6108268383836113b3565b600061086783610e1e565b82106108c95760405162461bcd60e51b815260206004820152602b60248201527f455243373231456e756d657261626c653a206f776e657220696e646578206f7560448201526a74206f6620626f756e647360a81b6064820152608401610785565b506001600160a01b03919091166000908152600660209081526040808320938352929052205490565b61082683838360405180602001604052806000815250610f3a565b600061091860085490565b821061097b5760405162461bcd60e51b815260206004820152602c60248201527f455243373231456e756d657261626c653a20676c6f62616c20696e646578206f60448201526b7574206f6620626f756e647360a01b6064820152608401610785565b6008828154811061098e5761098e6123ee565b90600052602060002001549050919050565b60006109ab60085490565b60105490915060ff1615610a015760405162461bcd60e51b815260206004820152601760248201527f4e46547320756e646572206d61696e74656e616e6365210000000000000000006044820152606401610785565b600f54811115610a5d5760405162461bcd60e51b815260206004820152602160248201527f536f7272792c20616c6c204e4654732068617665206265656e206d696e7465646044820152602160f81b6064820152608401610785565b60003411610aad5760405162461bcd60e51b815260206004820152601a60248201527f457468657220746f6f206c6f7720666f72206d696e74696e67210000000000006044820152606401610785565b600a546001600160a01b03163314610b0857600e54341015610b085760405162461bcd60e51b8152602060048201526014602482015273506c6561736520746f702075702065746865727360601b6044820152606401610785565b610b1c33610b1783600161241a565b611524565b60116040518060a00160405280836001610b36919061241a565b8152336020820152346040820152606001610b5a610b5585600161241a565b61153e565b81524260209182015282546001808201855560009485529382902083516005909202019081558282015193810180546001600160a01b0319166001600160a01b03909516949094179093556040820151600284015560608201518051929392610bc99260038501920190611edc565b5060809190910151600490910155610be56104f882600161241a565b604051610bf29190612432565b604051908190039020337fb9508407a6eccb191d8da3286f4173697cf95604e9ea192fe5ab7c862b5221f6610c2884600161241a565b60408051918252346020830152429082015260600160405180910390a350565b610c50611588565b8051610c6390600b906020840190611edc565b5050565b6000818152600260205260408120546001600160a01b0316806105c35760405162461bcd60e51b8152602060048201526018602482015277115490cdcc8c4e881a5b9d985b1a59081d1bdad95b88125160421b6044820152606401610785565b610d026040518060a001604052806000815260200160006001600160a01b031681526020016000815260200160608152602001600081525090565b6011610d0f60018461244e565b81548110610d1f57610d1f6123ee565b90600052602060002090600502016040518060a0016040529081600082015481526020016001820160009054906101000a90046001600160a01b03166001600160a01b03166001600160a01b0316815260200160028201548152602001600382018054610d8b90612366565b80601f0160208091040260200160405190810160405280929190818152602001828054610db790612366565b8015610e045780601f10610dd957610100808354040283529160200191610e04565b820191906000526020600020905b815481529060010190602001808311610de757829003601f168201915b505050505081526020016004820154815250509050919050565b60006001600160a01b038216610e885760405162461bcd60e51b815260206004820152602960248201527f4552433732313a2061646472657373207a65726f206973206e6f7420612076616044820152683634b21037bbb732b960b91b6064820152608401610785565b506001600160a01b031660009081526003602052604090205490565b610eac611588565b610eb660006115e2565b565b610ec0611588565b6000826001600160a01b03168260405160006040518083038185875af1925050503d8060008114610f0d576040519150601f19603f3d011682016040523d82523d6000602084013e610f12565b606091505b505090508061082657600080fd5b60606001805461066690612366565b610c63338383611634565b610f443383611334565b610f605760405162461bcd60e51b8152600401610785906123a1565b610f6c84848484611703565b50505050565b610f7a611588565b6010805460ff1916911515919091179055565b600d80546105d690612366565b6000818152600260205260409020546060906001600160a01b03166110195760405162461bcd60e51b815260206004820152602f60248201527f4552433732314d657461646174613a2055524920717565727920666f72206e6f60448201526e3732bc34b9ba32b73a103a37b5b2b760891b6064820152608401610785565b6000611023611736565b905060008151116110435760405180602001604052806000815250611071565b8061104d84611745565b600d60405160200161106193929190612465565b6040516020818303038152906040525b9392505050565b60606011805480602002602001604051908101604052809291908181526020016000905b828210156111955760008481526020908190206040805160a081018252600586029092018054835260018101546001600160a01b0316938301939093526002830154908201526003820180549192916060840191906110fa90612366565b80601f016020809104026020016040519081016040528092919081815260200182805461112690612366565b80156111735780601f1061114857610100808354040283529160200191611173565b820191906000526020600020905b81548152906001019060200180831161115657829003601f168201915b505050505081526020016004820154815250508152602001906001019061109c565b50505050905090565b6111a6611588565b6001600160a01b03811661120b5760405162461bcd60e51b815260206004820152602660248201527f4f776e61626c653a206e6577206f776e657220697320746865207a65726f206160448201526564647265737360d01b6064820152608401610785565b611214816115e2565b50565b60006001600160e01b031982166380ac58cd60e01b148061124857506001600160e01b03198216635b5e139f60e01b145b806105c357506301ffc9a760e01b6001600160e01b03198316146105c3565b6000818152600260205260409020546001600160a01b03166112145760405162461bcd60e51b8152602060048201526018602482015277115490cdcc8c4e881a5b9d985b1a59081d1bdad95b88125160421b6044820152606401610785565b600081815260046020526040902080546001600160a01b0319166001600160a01b03841690811790915581906112fb82610c67565b6001600160a01b03167f8c5be1e5ebec7d5bd14f71427d1e84f3dd0314c0f7b2291e5b200ac8c7c3b92560405160405180910390a45050565b60008061134083610c67565b9050806001600160a01b0316846001600160a01b0316148061138757506001600160a01b0380821660009081526005602090815260408083209388168352929052205460ff165b806113ab5750836001600160a01b03166113a0846106e9565b6001600160a01b0316145b949350505050565b826001600160a01b03166113c682610c67565b6001600160a01b0316146113ec5760405162461bcd60e51b815260040161078590612529565b6001600160a01b03821661144e5760405162461bcd60e51b8152602060048201526024808201527f4552433732313a207472616e7366657220746f20746865207a65726f206164646044820152637265737360e01b6064820152608401610785565b61145b83838360016117e2565b826001600160a01b031661146e82610c67565b6001600160a01b0316146114945760405162461bcd60e51b815260040161078590612529565b600081815260046020908152604080832080546001600160a01b03199081169091556001600160a01b0387811680865260038552838620805460001901905590871680865283862080546001019055868652600290945282852080549092168417909155905184937fddf252ad1be2c89b69c2b068fc378daa952ba7f163c4a11628f55a4df523b3ef91a4505050565b610c63828260405180602001604052806000815250611922565b6060600061154a611736565b9050600081511161156a5760405180602001604052806000815250611071565b8061157484611745565b600c60405160200161106193929190612465565b600a546001600160a01b03163314610eb65760405162461bcd60e51b815260206004820181905260248201527f4f776e61626c653a2063616c6c6572206973206e6f7420746865206f776e65726044820152606401610785565b600a80546001600160a01b038381166001600160a01b0319831681179093556040519116919082907f8be0079c531659141344cd1fd0a4f28419497f9722a3daafe3b4186f6b6457e090600090a35050565b816001600160a01b0316836001600160a01b031614156116965760405162461bcd60e51b815260206004820152601960248201527f4552433732313a20617070726f766520746f2063616c6c6572000000000000006044820152606401610785565b6001600160a01b03838116600081815260056020908152604080832094871680845294825291829020805460ff191686151590811790915591519182527f17307eab39ab6107e8899845ad3d59bd9653f200f220920489ca2b5937696c31910160405180910390a3505050565b61170e8484846113b3565b61171a84848484611955565b610f6c5760405162461bcd60e51b81526004016107859061256e565b6060600b805461066690612366565b6060600061175283611a53565b600101905060008167ffffffffffffffff811115611772576117726120ae565b6040519080825280601f01601f19166020018201604052801561179c576020820181803683370190505b5090508181016020015b600019016f181899199a1a9b1b9c1cb0b131b232b360811b600a86061a8153600a85049450846117d5576117da565b6117a6565b509392505050565b6117ee84848484611b2b565b600181111561185d5760405162461bcd60e51b815260206004820152603560248201527f455243373231456e756d657261626c653a20636f6e7365637574697665207472604482015274185b9cd9995c9cc81b9bdd081cdd5c1c1bdc9d1959605a1b6064820152608401610785565b816001600160a01b0385166118b9576118b481600880546000838152600960205260408120829055600182018355919091527ff3f7a9fe364faab93b216da50a3214154f22a0a2b415b23a84c8169e8b636ee30155565b6118dc565b836001600160a01b0316856001600160a01b0316146118dc576118dc8582611bb3565b6001600160a01b0384166118f8576118f381611c50565b61191b565b846001600160a01b0316846001600160a01b03161461191b5761191b8482611cff565b5050505050565b61192c8383611d43565b6119396000848484611955565b6108265760405162461bcd60e51b81526004016107859061256e565b60006001600160a01b0384163b15611a4857604051630a85bd0160e11b81526001600160a01b0385169063150b7a02906119999033908990889088906004016125c0565b6020604051808303816000875af19250505080156119d4575060408051601f3d908101601f191682019092526119d1918101906125fd565b60015b611a2e573d808015611a02576040519150601f19603f3d011682016040523d82523d6000602084013e611a07565b606091505b508051611a265760405162461bcd60e51b81526004016107859061256e565b805181602001fd5b6001600160e01b031916630a85bd0160e11b1490506113ab565b506001949350505050565b60008072184f03e93ff9f4daa797ed6e38ed64bf6a1f0160401b8310611a925772184f03e93ff9f4daa797ed6e38ed64bf6a1f0160401b830492506040015b6d04ee2d6d415b85acef81000000008310611abe576d04ee2d6d415b85acef8100000000830492506020015b662386f26fc100008310611adc57662386f26fc10000830492506010015b6305f5e1008310611af4576305f5e100830492506008015b6127108310611b0857612710830492506004015b60648310611b1a576064830492506002015b600a83106105c35760010192915050565b6001811115610f6c576001600160a01b03841615611b71576001600160a01b03841660009081526003602052604081208054839290611b6b90849061244e565b90915550505b6001600160a01b03831615610f6c576001600160a01b03831660009081526003602052604081208054839290611ba890849061241a565b909155505050505050565b60006001611bc084610e1e565b611bca919061244e565b600083815260076020526040902054909150808214611c1d576001600160a01b03841660009081526006602090815260408083208584528252808320548484528184208190558352600790915290208190555b5060009182526007602090815260408084208490556001600160a01b039094168352600681528383209183525290812055565b600854600090611c629060019061244e565b60008381526009602052604081205460088054939450909284908110611c8a57611c8a6123ee565b906000526020600020015490508060088381548110611cab57611cab6123ee565b6000918252602080832090910192909255828152600990915260408082208490558582528120556008805480611ce357611ce361261a565b6001900381819060005260206000200160009055905550505050565b6000611d0a83610e1e565b6001600160a01b039093166000908152600660209081526040808320868452825280832085905593825260079052919091209190915550565b6001600160a01b038216611d995760405162461bcd60e51b815260206004820181905260248201527f4552433732313a206d696e7420746f20746865207a65726f20616464726573736044820152606401610785565b6000818152600260205260409020546001600160a01b031615611dfe5760405162461bcd60e51b815260206004820152601c60248201527f4552433732313a20746f6b656e20616c7265616479206d696e746564000000006044820152606401610785565b611e0c6000838360016117e2565b6000818152600260205260409020546001600160a01b031615611e715760405162461bcd60e51b815260206004820152601c60248201527f4552433732313a20746f6b656e20616c7265616479206d696e746564000000006044820152606401610785565b6001600160a01b038216600081815260036020908152604080832080546001019055848352600290915280822080546001600160a01b0319168417905551839291907fddf252ad1be2c89b69c2b068fc378daa952ba7f163c4a11628f55a4df523b3ef908290a45050565b828054611ee890612366565b90600052602060002090601f016020900481019282611f0a5760008555611f50565b82601f10611f2357805160ff1916838001178555611f50565b82800160010185558215611f50579182015b82811115611f50578251825591602001919060010190611f35565b50611f5c929150611f60565b5090565b5b80821115611f5c5760008155600101611f61565b6001600160e01b03198116811461121457600080fd5b600060208284031215611f9d57600080fd5b813561107181611f75565b60005b83811015611fc3578181015183820152602001611fab565b83811115610f6c5750506000910152565b60008151808452611fec816020860160208601611fa8565b601f01601f19169290920160200192915050565b6020815260006110716020830184611fd4565b60006020828403121561202557600080fd5b5035919050565b80356001600160a01b038116811461204357600080fd5b919050565b6000806040838503121561205b57600080fd5b6120648361202c565b946020939093013593505050565b60008060006060848603121561208757600080fd5b6120908461202c565b925061209e6020850161202c565b9150604084013590509250925092565b634e487b7160e01b600052604160045260246000fd5b600067ffffffffffffffff808411156120df576120df6120ae565b604051601f8501601f19908116603f01168101908282118183101715612107576121076120ae565b8160405280935085815286868601111561212057600080fd5b858560208301376000602087830101525050509392505050565b60006020828403121561214c57600080fd5b813567ffffffffffffffff81111561216357600080fd5b8201601f8101841361217457600080fd5b6113ab848235602084016120c4565b8051825260018060a01b036020820151166020830152604081015160408301526000606082015160a060608501526121be60a0850182611fd4565b608093840151949093019390935250919050565b6020815260006110716020830184612183565b6000602082840312156121f757600080fd5b6110718261202c565b8035801515811461204357600080fd5b6000806040838503121561222357600080fd5b61222c8361202c565b915061223a60208401612200565b90509250929050565b6000806000806080858703121561225957600080fd5b6122628561202c565b93506122706020860161202c565b925060408501359150606085013567ffffffffffffffff81111561229357600080fd5b8501601f810187136122a457600080fd5b6122b3878235602084016120c4565b91505092959194509250565b6000602082840312156122d157600080fd5b61107182612200565b6000602080830181845280855180835260408601915060408160051b870101925083870160005b8281101561232f57603f1988860301845261231d858351612183565b94509285019290850190600101612301565b5092979650505050505050565b6000806040838503121561234f57600080fd5b6123588361202c565b915061223a6020840161202c565b600181811c9082168061237a57607f821691505b6020821081141561239b57634e487b7160e01b600052602260045260246000fd5b50919050565b6020808252602d908201527f4552433732313a2063616c6c6572206973206e6f7420746f6b656e206f776e6560408201526c1c881bdc88185c1c1c9bdd9959609a1b606082015260800190565b634e487b7160e01b600052603260045260246000fd5b634e487b7160e01b600052601160045260246000fd5b6000821982111561242d5761242d612404565b500190565b60008251612444818460208701611fa8565b9190910192915050565b60008282101561246057612460612404565b500390565b6000845160206124788285838a01611fa8565b85519184019161248b8184848a01611fa8565b8554920191600090600181811c90808316806124a857607f831692505b8583108114156124c657634e487b7160e01b85526022600452602485fd5b8080156124da57600181146124eb57612518565b60ff19851688528388019550612518565b60008b81526020902060005b858110156125105781548a8201529084019088016124f7565b505083880195505b50939b9a5050505050505050505050565b60208082526025908201527f4552433732313a207472616e736665722066726f6d20696e636f72726563742060408201526437bbb732b960d91b606082015260800190565b60208082526032908201527f4552433732313a207472616e7366657220746f206e6f6e20455243373231526560408201527131b2b4bb32b91034b6b83632b6b2b73a32b960711b606082015260800190565b6001600160a01b03858116825284166020820152604081018390526080606082018190526000906125f390830184611fd4565b9695505050505050565b60006020828403121561260f57600080fd5b815161107181611f75565b634e487b7160e01b600052603160045260246000fdfea2646970667358221220f914c432f88c4180f1ff75d6874cd4081a12540f3d57c753ebb29242d2e91af064736f6c634300080b0033",
  "linkReferences": {},
  "deployedLinkReferences": {}
}